:1000000074EF02F00000000000EF00F000000000BC
:0A0010000000000000000000F3D71C
:10001C00F250026EF29E0500FF6A0150FE6E005017
:08002C00FD6E02BEF28E12000F
:10003400C7B409D01F0EC514016E0150000A03E1B4
:0A004400010E006E01D0006A1200E8
:10004E0022C052F023C053F024C054F025C055F006
:10005E00506A516A5150120802E150508E0807E35F
:10006E00E2DF005201E003D0504A512AF3D7120EBC
:10007E00515C02E18F0E505C03E37B0E006E23D0C9
:10008E00C580C5A01FD0225023102410251019E0C2
:10009E0052505310541055100EE128C0E1FF29C0E4
:1000AE00E2FF050EE66E26C000F027C001F0AFDFBE
:1000BE00010E006E08D0010E525E000E535A545AB5
:0800CE00555ADFD7006A120049
:1000D6009E9650C0C9FF22C051F023C052F024C0E2
:1000E60053F025C054F0C7A41FD02250231024106B
:1000F600251019E051505210531054100EE128C02B
:10010600E1FF29C0E2FF040EE66E26C000F027C01C
:1001160001F081DF010E006E37D0010E515E000E38
:10012600525A535A545ADFD722C051F023C052F0C4
:1001360024C053F025C054F09EB61FD02250231081
:100146002410251019E051505210531054100EE18E
:1001560028C0E1FF29C0E2FF040EE66E26C000F0CB
:1001660027C001F058DF010E006E0ED0010E515E61
:10017600000E525A535A545ADFD7C5BC02D0006AF1
:0A01860003D0C584020E006E1200C3
:04019000C584120010
:100194004F6AF00E4C144D6E4CC04EF04E364E90DD
:1001A4004E364E904E364E904E364E90F00E4E16C3
:1001B4004CDF3EDF4E0E506E8CDF3ADF4F504D1059
:1001C400506E5084508685DF33DF420E0D6E0D2E47
:1001D400FED700004F504D10506E50867ADF28DF56
:1001E400850E0D6E0D2EFED74F504E10506E50845E
:1001F40050866FDF1DDF420E0D6E0D2EFED7000000
:100204004F504E10506E508664DF12DFBFDF4C50EB
:10021400010A09E10B0E0C6E620E0D6E0D2EFED757
:080224000C2EFCD700001200B3
:10022C00010E4B6E1CD04704006E0050800F4C6EBC
:10023C00ABDF21D04704006E0050C00F4C6EA4DF22
:10024C001AD04704006E0050940F4C6E9DDF13D0F3
:10025C004704006E0050D40F4C6E96DF0CD0465005
:10026C00010AE1E04650020AE5E04650030AE9E0E3
:10027C004650040AEDE0F00E4814496E48C04AF0AE
:10028C004A364A904A364A904A364A904A364A90FA
:10029C00F00E4A16D6DEC8DE4E0E506E16DFC4DEE9
:1002AC004B504910506E508450860FDFBDDE420E0D
:1002BC000D6E0D2EFED700004B504910506E50861F
:1002CC0004DFB2DE850E0D6E0D2EFED74B504A109C
:1002DC00506E50845086F9DEA7DE420E0D6E0D2E48
:1002EC00FED700004B504A10506E5086EEDE9CDE5E
:0402FC0049DF1200C4
:10030000466AA5DE97DE4E0E506EE5DE93DE100ED9
:100310000C6E940E0D6E0D2EFED70C2EFCD7000029
:10032000300E4610506E50845086D5DE83DE420E6D
:100330000D6E0D2EFED70000300E4610506E50860A
:10034000CADE78DE060E0C6E300E0D6E0D2EFED758
:100350000C2EFCD70000300E4610506E5084508694
:10036000BADE68DE420E0D6E0D2EFED70000300E96
:100370004610506E5086AFDE5DDE060E0C6E300EFF
:100380000D6E0D2EFED70C2EFCD70000300E461041
:10039000506E508450869FDE4DDE420E0D6E0D2E47
:1003A000FED70000300E4610506E508694DE42DEBE
:1003B000060E0C6E300E0D6E0D2EFED70C2EFCD7D9
:1003C0000000200E4610506E5084508684DE32DECF
:1003D000420E0D6E0D2EFED70000200E4610506E00
:1003E000508679DE27DED4DE060E0C6E300E0D6EE2
:1003F0000D2EFED70C2EFCD70000280E4C6ECADE48
:10040000060E4C6EC7DE0C0E4C6EC4DE010E4C6E3A
:04041000C1DE120037
:10041400340E2A6E000E2B6E000E2C6E000E2D6E06
:100424004E0E2E6E000E2F6E000E306E000E316ECC
:10043400FF0E3A6EFF0E3B6E000E3C6E000E3D6EDC
:10044400FF0E3E6EFF0E3F6EFF0E406EFF0E416EBE
:10045400D60E326E000E336E500E346E000E356EB4
:10046400900E366E010E376E000E386E000E396E29
:10047400939093928A908A9293809382C79EC79C0A
:06048400380EC66E1200E6
:10048A000900F5CFE6FF0006FBE10106F9E11200DB
:10049A00280EC86EBADF030E0B6E080E0C6E770EAE
:1004AA000D6E0D2EFED70C2EFCD70B2EFAD723DF9E
:0204BA0012002E
:1004BC0044C0E9FF45C0EAFFEE520FE042C046F0EF
:1004CC0043C047F044C0E9FF45C0EAFFEECF48F017
:0C04DC00A7DE432A444A452AEBD7120051
:1004E80097EC02F0D6DF010E426E010E436E150E38
:1004F800446E000E456EDEDF660E0B6E760E0C6ED9
:10050800C10E0D6E0D2EFED70C2EFCD70B2EFAD772
:04051800EAD7FFD748
:10052E0010EE15F0110E006E010E016E1C0EF66E21
:0E053E00050EF76E000EF86E45EC02F012008E
:0D051C004C434420493243203136783200F0
:0405290000000000CE
:020000040030CA
:0E00000000035F3CFFD381FF0FC00FE00F40F5
:00000001FF
